{
	"contracts/fundMe.sol": {
		"FundMe": {
			"abi": [
				{
					"inputs": [
						{
							"internalType": "address",
							"name": "",
							"type": "address"
						}
					],
					"name": "addrtofund",
					"outputs": [
						{
							"internalType": "uint256",
							"name": "",
							"type": "uint256"
						}
					],
					"stateMutability": "view",
					"type": "function"
				},
				{
					"inputs": [
						{
							"internalType": "uint256",
							"name": "",
							"type": "uint256"
						}
					],
					"name": "funders",
					"outputs": [
						{
							"internalType": "address",
							"name": "",
							"type": "address"
						}
					],
					"stateMutability": "view",
					"type": "function"
				},
				{
					"inputs": [],
					"name": "fundme",
					"outputs": [],
					"stateMutability": "payable",
					"type": "function"
				},
				{
					"inputs": [],
					"name": "minamt",
					"outputs": [
						{
							"internalType": "uint256",
							"name": "",
							"type": "uint256"
						}
					],
					"stateMutability": "view",
					"type": "function"
				}
			],
			"devdoc": {
				"kind": "dev",
				"methods": {},
				"version": 1
			},
			"evm": {
				"assembly": "    /* \"contracts/fundMe.sol\":166:546  contract FundMe {... */\n  mstore(0x40, 0x80)\n    /* \"contracts/fundMe.sol\":250:252  50 */\n  0x32\n    /* \"contracts/fundMe.sol\":226:252  uint256 public minamt = 50 */\n  0x00\n  sstore\n    /* \"contracts/fundMe.sol\":166:546  contract FundMe {... */\n  callvalue\n  dup1\n  iszero\n  tag_1\n  jumpi\n  0x00\n  dup1\n  revert\ntag_1:\n  pop\n  dataSize(sub_0)\n  dup1\n  dataOffset(sub_0)\n  0x00\n  codecopy\n  0x00\n  return\nstop\n\nsub_0: assembly {\n        /* \"contracts/fundMe.sol\":166:546  contract FundMe {... */\n      mstore(0x40, 0x80)\n      jumpi(tag_1, lt(calldatasize, 0x04))\n      shr(0xe0, calldataload(0x00))\n      dup1\n      0x358e8d00\n      eq\n      tag_2\n      jumpi\n      dup1\n      0xac7eba22\n      eq\n      tag_3\n      jumpi\n      dup1\n      0xd1d9165d\n      eq\n      tag_4\n      jumpi\n      dup1\n      0xdc0d3dff\n      eq\n      tag_5\n      jumpi\n    tag_1:\n      0x00\n      dup1\n      revert\n        /* \"contracts/fundMe.sol\":226:252  uint256 public minamt = 50 */\n    tag_2:\n      callvalue\n      dup1\n      iszero\n      tag_6\n      jumpi\n      0x00\n      dup1\n      revert\n    tag_6:\n      pop\n      tag_7\n      tag_8\n      jump\t// in\n    tag_7:\n      mload(0x40)\n      tag_9\n      swap2\n      swap1\n      tag_10\n      jump\t// in\n    tag_9:\n      mload(0x40)\n      dup1\n      swap2\n      sub\n      swap1\n      return\n        /* \"contracts/fundMe.sol\":289:334  mapping(address => uint256) public addrtofund */\n    tag_3:\n      callvalue\n      dup1\n      iszero\n      tag_11\n      jumpi\n      0x00\n      dup1\n      revert\n    tag_11:\n      pop\n      tag_12\n      0x04\n      dup1\n      calldatasize\n      sub\n      dup2\n      add\n      swap1\n      tag_13\n      swap2\n      swap1\n      tag_14\n      jump\t// in\n    tag_13:\n      tag_15\n      jump\t// in\n    tag_12:\n      mload(0x40)\n      tag_16\n      swap2\n      swap1\n      tag_10\n      jump\t// in\n    tag_16:\n      mload(0x40)\n      dup1\n      swap2\n      sub\n      swap1\n      return\n        /* \"contracts/fundMe.sol\":340:538  function fundme() public payable ... */\n    tag_4:\n      tag_17\n      tag_18\n      jump\t// in\n    tag_17:\n      stop\n        /* \"contracts/fundMe.sol\":258:282  address[] public funders */\n    tag_5:\n      callvalue\n      dup1\n      iszero\n      tag_19\n      jumpi\n      0x00\n      dup1\n      revert\n    tag_19:\n      pop\n      tag_20\n      0x04\n      dup1\n      calldatasize\n      sub\n      dup2\n      add\n      swap1\n      tag_21\n      swap2\n      swap1\n      tag_22\n      jump\t// in\n    tag_21:\n      tag_23\n      jump\t// in\n    tag_20:\n      mload(0x40)\n      tag_24\n      swap2\n      swap1\n      tag_25\n      jump\t// in\n    tag_24:\n      mload(0x40)\n      dup1\n      swap2\n      sub\n      swap1\n      return\n        /* \"contracts/fundMe.sol\":226:252  uint256 public minamt = 50 */\n    tag_8:\n      sload(0x00)\n      dup2\n      jump\t// out\n        /* \"contracts/fundMe.sol\":289:334  mapping(address => uint256) public addrtofund */\n    tag_15:\n      mstore(0x20, 0x02)\n      dup1\n      0x00\n      mstore\n      keccak256(0x00, 0x40)\n      0x00\n      swap2\n      pop\n      swap1\n      pop\n      sload\n      dup2\n      jump\t// out\n        /* \"contracts/fundMe.sol\":340:538  function fundme() public payable ... */\n    tag_18:\n        /* \"contracts/fundMe.sol\":428:434  minamt */\n      sload(0x00)\n        /* \"contracts/fundMe.sol\":396:425  msg.value.getconversionrate() */\n      tag_27\n        /* \"contracts/fundMe.sol\":396:405  msg.value */\n      callvalue\n        /* \"contracts/fundMe.sol\":396:423  msg.value.getconversionrate */\n      tag_28\n        /* \"contracts/fundMe.sol\":396:425  msg.value.getconversionrate() */\n      jump\t// in\n    tag_27:\n        /* \"contracts/fundMe.sol\":396:434  msg.value.getconversionrate() > minamt */\n      gt\n        /* \"contracts/fundMe.sol\":388:455  require(msg.value.getconversionrate() > minamt, \"IT isn't enough!\") */\n      tag_29\n      jumpi\n      mload(0x40)\n      0x08c379a000000000000000000000000000000000000000000000000000000000\n      dup2\n      mstore\n      0x04\n      add\n      tag_30\n      swap1\n      tag_31\n      jump\t// in\n    tag_30:\n      mload(0x40)\n      dup1\n      swap2\n      sub\n      swap1\n      revert\n    tag_29:\n        /* \"contracts/fundMe.sol\":465:472  funders */\n      0x01\n        /* \"contracts/fundMe.sol\":478:488  msg.sender */\n      caller\n        /* \"contracts/fundMe.sol\":465:489  funders.push(msg.sender) */\n      swap1\n      dup1\n      0x01\n      dup2\n      sload\n      add\n      dup1\n      dup3\n      sstore\n      dup1\n      swap2\n      pop\n      pop\n      0x01\n      swap1\n      sub\n      swap1\n      0x00\n      mstore\n      keccak256(0x00, 0x20)\n      add\n      0x00\n      swap1\n      swap2\n      swap1\n      swap2\n      swap1\n      swap2\n      0x0100\n      exp\n      dup2\n      sload\n      dup2\n      0xffffffffffffffffffffffffffffffffffffffff\n      mul\n      not\n      and\n      swap1\n      dup4\n      0xffffffffffffffffffffffffffffffffffffffff\n      and\n      mul\n      or\n      swap1\n      sstore\n      pop\n        /* \"contracts/fundMe.sol\":522:531  msg.value */\n      callvalue\n        /* \"contracts/fundMe.sol\":499:509  addrtofund */\n      0x02\n        /* \"contracts/fundMe.sol\":499:521  addrtofund[msg.sender] */\n      0x00\n        /* \"contracts/fundMe.sol\":510:520  msg.sender */\n      caller\n        /* \"contracts/fundMe.sol\":499:521  addrtofund[msg.sender] */\n      0xffffffffffffffffffffffffffffffffffffffff\n      and\n      0xffffffffffffffffffffffffffffffffffffffff\n      and\n      dup2\n      mstore\n      0x20\n      add\n      swap1\n      dup2\n      mstore\n      0x20\n      add\n      0x00\n      keccak256\n        /* \"contracts/fundMe.sol\":499:531  addrtofund[msg.sender]=msg.value */\n      dup2\n      swap1\n      sstore\n      pop\n        /* \"contracts/fundMe.sol\":340:538  function fundme() public payable ... */\n      jump\t// out\n        /* \"contracts/fundMe.sol\":258:282  address[] public funders */\n    tag_23:\n      0x01\n      dup2\n      dup2\n      sload\n      dup2\n      lt\n      tag_33\n      jumpi\n      0x00\n      dup1\n      revert\n    tag_33:\n      swap1\n      0x00\n      mstore\n      keccak256(0x00, 0x20)\n      add\n      0x00\n      swap2\n      pop\n      sload\n      swap1\n      0x0100\n      exp\n      swap1\n      div\n      0xffffffffffffffffffffffffffffffffffffffff\n      and\n      dup2\n      jump\t// out\n        /* \"contracts/priceConvertor.sol\":433:645  function getconversionrate(uint256 Ethamount) internal view returns (uint256) ... */\n    tag_28:\n        /* \"contracts/priceConvertor.sol\":502:509  uint256 */\n      0x00\n        /* \"contracts/priceConvertor.sol\":526:542  uint256 ethprice */\n      dup1\n        /* \"contracts/priceConvertor.sol\":545:555  getPrice() */\n      tag_36\n        /* \"contracts/priceConvertor.sol\":545:553  getPrice */\n      tag_37\n        /* \"contracts/priceConvertor.sol\":545:555  getPrice() */\n      jump\t// in\n    tag_36:\n        /* \"contracts/priceConvertor.sol\":526:555  uint256 ethprice = getPrice() */\n      swap1\n      pop\n        /* \"contracts/priceConvertor.sol\":565:582  uint256 ETH_TOTAL */\n      0x00\n        /* \"contracts/priceConvertor.sol\":608:612  1e18 */\n      0x0de0b6b3a7640000\n        /* \"contracts/priceConvertor.sol\":595:604  Ethamount */\n      dup5\n        /* \"contracts/priceConvertor.sol\":586:594  ethprice */\n      dup4\n        /* \"contracts/priceConvertor.sol\":586:604  ethprice*Ethamount */\n      tag_38\n      swap2\n      swap1\n      tag_39\n      jump\t// in\n    tag_38:\n        /* \"contracts/priceConvertor.sol\":585:612  (ethprice*Ethamount) / 1e18 */\n      tag_40\n      swap2\n      swap1\n      tag_41\n      jump\t// in\n    tag_40:\n        /* \"contracts/priceConvertor.sol\":565:612  uint256 ETH_TOTAL = (ethprice*Ethamount) / 1e18 */\n      swap1\n      pop\n        /* \"contracts/priceConvertor.sol\":629:638  ETH_TOTAL */\n      dup1\n        /* \"contracts/priceConvertor.sol\":622:638  return ETH_TOTAL */\n      swap3\n      pop\n      pop\n      pop\n        /* \"contracts/priceConvertor.sol\":433:645  function getconversionrate(uint256 Ethamount) internal view returns (uint256) ... */\n      swap2\n      swap1\n      pop\n      jump\t// out\n        /* \"contracts/priceConvertor.sol\":163:427  function getPrice() view internal returns (uint256) ... */\n    tag_37:\n        /* \"contracts/priceConvertor.sol\":206:213  uint256 */\n      0x00\n        /* \"contracts/priceConvertor.sol\":230:261  AggregatorV3Interface pricefeed */\n      dup1\n        /* \"contracts/priceConvertor.sol\":286:328  0x694AA1769357215DE4FAC081bf1f309aDC325306 */\n      0x694aa1769357215de4fac081bf1f309adc325306\n        /* \"contracts/priceConvertor.sol\":230:329  AggregatorV3Interface pricefeed = AggregatorV3Interface(0x694AA1769357215DE4FAC081bf1f309aDC325306) */\n      swap1\n      pop\n        /* \"contracts/priceConvertor.sol\":341:351  int256 ans */\n      0x00\n        /* \"contracts/priceConvertor.sol\":358:367  pricefeed */\n      dup2\n        /* \"contracts/priceConvertor.sol\":358:383  pricefeed.latestRoundData */\n      0xffffffffffffffffffffffffffffffffffffffff\n      and\n      0xfeaf968c\n        /* \"contracts/priceConvertor.sol\":358:385  pricefeed.latestRoundData() */\n      mload(0x40)\n      dup2\n      0xffffffff\n      and\n      0xe0\n      shl\n      dup2\n      mstore\n      0x04\n      add\n      0xa0\n      mload(0x40)\n      dup1\n      dup4\n      sub\n      dup2\n      dup7\n      gas\n      staticcall\n      iszero\n      dup1\n      iszero\n      tag_44\n      jumpi\n      returndatasize\n      0x00\n      dup1\n      returndatacopy\n      revert(0x00, returndatasize)\n    tag_44:\n      pop\n      pop\n      pop\n      pop\n      mload(0x40)\n      returndatasize\n      not(0x1f)\n      0x1f\n      dup3\n      add\n      and\n      dup3\n      add\n      dup1\n      0x40\n      mstore\n      pop\n      dup2\n      add\n      swap1\n      tag_45\n      swap2\n      swap1\n      tag_46\n      jump\t// in\n    tag_45:\n        /* \"contracts/priceConvertor.sol\":339:385  (,int256 ans,,,) = pricefeed.latestRoundData() */\n      pop\n      pop\n      pop\n      swap2\n      pop\n      pop\n        /* \"contracts/priceConvertor.sol\":416:419  1e8 */\n      0x05f5e100\n        /* \"contracts/priceConvertor.sol\":410:413  ans */\n      dup2\n        /* \"contracts/priceConvertor.sol\":410:419  ans * 1e8 */\n      tag_47\n      swap2\n      swap1\n      tag_48\n      jump\t// in\n    tag_47:\n        /* \"contracts/priceConvertor.sol\":395:420  return uint256(ans * 1e8) */\n      swap3\n      pop\n      pop\n      pop\n        /* \"contracts/priceConvertor.sol\":163:427  function getPrice() view internal returns (uint256) ... */\n      swap1\n      jump\t// out\n        /* \"#utility.yul\":7:84   */\n    tag_49:\n        /* \"#utility.yul\":44:51   */\n      0x00\n        /* \"#utility.yul\":73:78   */\n      dup2\n        /* \"#utility.yul\":62:78   */\n      swap1\n      pop\n        /* \"#utility.yul\":7:84   */\n      swap2\n      swap1\n      pop\n      jump\t// out\n        /* \"#utility.yul\":90:208   */\n    tag_50:\n        /* \"#utility.yul\":177:201   */\n      tag_76\n        /* \"#utility.yul\":195:200   */\n      dup2\n        /* \"#utility.yul\":177:201   */\n      tag_49\n      jump\t// in\n    tag_76:\n        /* \"#utility.yul\":172:175   */\n      dup3\n        /* \"#utility.yul\":165:202   */\n      mstore\n        /* \"#utility.yul\":90:208   */\n      pop\n      pop\n      jump\t// out\n        /* \"#utility.yul\":214:436   */\n    tag_10:\n        /* \"#utility.yul\":307:311   */\n      0x00\n        /* \"#utility.yul\":345:347   */\n      0x20\n        /* \"#utility.yul\":334:343   */\n      dup3\n        /* \"#utility.yul\":330:348   */\n      add\n        /* \"#utility.yul\":322:348   */\n      swap1\n      pop\n        /* \"#utility.yul\":358:429   */\n      tag_78\n        /* \"#utility.yul\":426:427   */\n      0x00\n        /* \"#utility.yul\":415:424   */\n      dup4\n        /* \"#utility.yul\":411:428   */\n      add\n        /* \"#utility.yul\":402:408   */\n      dup5\n        /* \"#utility.yul\":358:429   */\n      tag_50\n      jump\t// in\n    tag_78:\n        /* \"#utility.yul\":214:436   */\n      swap3\n      swap2\n      pop\n      pop\n      jump\t// out\n        /* \"#utility.yul\":523:640   */\n    tag_52:\n        /* \"#utility.yul\":632:633   */\n      0x00\n        /* \"#utility.yul\":629:630   */\n      dup1\n        /* \"#utility.yul\":622:634   */\n      revert\n        /* \"#utility.yul\":769:895   */\n    tag_54:\n        /* \"#utility.yul\":806:813   */\n      0x00\n        /* \"#utility.yul\":846:888   */\n      0xffffffffffffffffffffffffffffffffffffffff\n        /* \"#utility.yul\":839:844   */\n      dup3\n        /* \"#utility.yul\":835:889   */\n      and\n        /* \"#utility.yul\":824:889   */\n      swap1\n      pop\n        /* \"#utility.yul\":769:895   */\n      swap2\n      swap1\n      pop\n      jump\t// out\n        /* \"#utility.yul\":901:997   */\n    tag_55:\n        /* \"#utility.yul\":938:945   */\n      0x00\n        /* \"#utility.yul\":967:991   */\n      tag_84\n        /* \"#utility.yul\":985:990   */\n      dup3\n        /* \"#utility.yul\":967:991   */\n      tag_54\n      jump\t// in\n    tag_84:\n        /* \"#utility.yul\":956:991   */\n      swap1\n      pop\n        /* \"#utility.yul\":901:997   */\n      swap2\n      swap1\n      pop\n      jump\t// out\n        /* \"#utility.yul\":1003:1125   */\n    tag_56:\n        /* \"#utility.yul\":1076:1100   */\n      tag_86\n        /* \"#utility.yul\":1094:1099   */\n      dup2\n        /* \"#utility.yul\":1076:1100   */\n      tag_55\n      jump\t// in\n    tag_86:\n        /* \"#utility.yul\":1069:1074   */\n      dup2\n        /* \"#utility.yul\":1066:1101   */\n      eq\n        /* \"#utility.yul\":1056:1119   */\n      tag_87\n      jumpi\n        /* \"#utility.yul\":1115:1116   */\n      0x00\n        /* \"#utility.yul\":1112:1113   */\n      dup1\n        /* \"#utility.yul\":1105:1117   */\n      revert\n        /* \"#utility.yul\":1056:1119   */\n    tag_87:\n        /* \"#utility.yul\":1003:1125   */\n      pop\n      jump\t// out\n        /* \"#utility.yul\":1131:1270   */\n    tag_57:\n        /* \"#utility.yul\":1177:1182   */\n      0x00\n        /* \"#utility.yul\":1215:1221   */\n      dup2\n        /* \"#utility.yul\":1202:1222   */\n      calldataload\n        /* \"#utility.yul\":1193:1222   */\n      swap1\n      pop\n        /* \"#utility.yul\":1231:1264   */\n      tag_89\n        /* \"#utility.yul\":1258:1263   */\n      dup2\n        /* \"#utility.yul\":1231:1264   */\n      tag_56\n      jump\t// in\n    tag_89:\n        /* \"#utility.yul\":1131:1270   */\n      swap3\n      swap2\n      pop\n      pop\n      jump\t// out\n        /* \"#utility.yul\":1276:1605   */\n    tag_14:\n        /* \"#utility.yul\":1335:1341   */\n      0x00\n        /* \"#utility.yul\":1384:1386   */\n      0x20\n        /* \"#utility.yul\":1372:1381   */\n      dup3\n        /* \"#utility.yul\":1363:1370   */\n      dup5\n        /* \"#utility.yul\":1359:1382   */\n      sub\n        /* \"#utility.yul\":1355:1387   */\n      slt\n        /* \"#utility.yul\":1352:1471   */\n      iszero\n      tag_91\n      jumpi\n        /* \"#utility.yul\":1390:1469   */\n      tag_92\n      tag_52\n      jump\t// in\n    tag_92:\n        /* \"#utility.yul\":1352:1471   */\n    tag_91:\n        /* \"#utility.yul\":1510:1511   */\n      0x00\n        /* \"#utility.yul\":1535:1588   */\n      tag_93\n        /* \"#utility.yul\":1580:1587   */\n      dup5\n        /* \"#utility.yul\":1571:1577   */\n      dup3\n        /* \"#utility.yul\":1560:1569   */\n      dup6\n        /* \"#utility.yul\":1556:1578   */\n      add\n        /* \"#utility.yul\":1535:1588   */\n      tag_57\n      jump\t// in\n    tag_93:\n        /* \"#utility.yul\":1525:1588   */\n      swap2\n      pop\n        /* \"#utility.yul\":1481:1598   */\n      pop\n        /* \"#utility.yul\":1276:1605   */\n      swap3\n      swap2\n      pop\n      pop\n      jump\t// out\n        /* \"#utility.yul\":1611:1733   */\n    tag_58:\n        /* \"#utility.yul\":1684:1708   */\n      tag_95\n        /* \"#utility.yul\":1702:1707   */\n      dup2\n        /* \"#utility.yul\":1684:1708   */\n      tag_49\n      jump\t// in\n    tag_95:\n        /* \"#utility.yul\":1677:1682   */\n      dup2\n        /* \"#utility.yul\":1674:1709   */\n      eq\n        /* \"#utility.yul\":1664:1727   */\n      tag_96\n      jumpi\n        /* \"#utility.yul\":1723:1724   */\n      0x00\n        /* \"#utility.yul\":1720:1721   */\n      dup1\n        /* \"#utility.yul\":1713:1725   */\n      revert\n        /* \"#utility.yul\":1664:1727   */\n    tag_96:\n        /* \"#utility.yul\":1611:1733   */\n      pop\n      jump\t// out\n        /* \"#utility.yul\":1739:1878   */\n    tag_59:\n        /* \"#utility.yul\":1785:1790   */\n      0x00\n        /* \"#utility.yul\":1823:1829   */\n      dup2\n        /* \"#utility.yul\":1810:1830   */\n      calldataload\n        /* \"#utility.yul\":1801:1830   */\n      swap1\n      pop\n        /* \"#utility.yul\":1839:1872   */\n      tag_98\n        /* \"#utility.yul\":1866:1871   */\n      dup2\n        /* \"#utility.yul\":1839:1872   */\n      tag_58\n      jump\t// in\n    tag_98:\n        /* \"#utility.yul\":1739:1878   */\n      swap3\n      swap2\n      pop\n      pop\n      jump\t// out\n        /* \"#utility.yul\":1884:2213   */\n    tag_22:\n        /* \"#utility.yul\":1943:1949   */\n      0x00\n        /* \"#utility.yul\":1992:1994   */\n      0x20\n        /* \"#utility.yul\":1980:1989   */\n      dup3\n        /* \"#utility.yul\":1971:1978   */\n      dup5\n        /* \"#utility.yul\":1967:1990   */\n      sub\n        /* \"#utility.yul\":1963:1995   */\n      slt\n        /* \"#utility.yul\":1960:2079   */\n      iszero\n      tag_100\n      jumpi\n        /* \"#utility.yul\":1998:2077   */\n      tag_101\n      tag_52\n      jump\t// in\n    tag_101:\n        /* \"#utility.yul\":1960:2079   */\n    tag_100:\n        /* \"#utility.yul\":2118:2119   */\n      0x00\n        /* \"#utility.yul\":2143:2196   */\n      tag_102\n        /* \"#utility.yul\":2188:2195   */\n      dup5\n        /* \"#utility.yul\":2179:2185   */\n      dup3\n        /* \"#utility.yul\":2168:2177   */\n      dup6\n        /* \"#utility.yul\":2164:2186   */\n      add\n        /* \"#utility.yul\":2143:2196   */\n      tag_59\n      jump\t// in\n    tag_102:\n        /* \"#utility.yul\":2133:2196   */\n      swap2\n      pop\n        /* \"#utility.yul\":2089:2206   */\n      pop\n        /* \"#utility.yul\":1884:2213   */\n      swap3\n      swap2\n      pop\n      pop\n      jump\t// out\n        /* \"#utility.yul\":2219:2337   */\n    tag_60:\n        /* \"#utility.yul\":2306:2330   */\n      tag_104\n        /* \"#utility.yul\":2324:2329   */\n      dup2\n        /* \"#utility.yul\":2306:2330   */\n      tag_55\n      jump\t// in\n    tag_104:\n        /* \"#utility.yul\":2301:2304   */\n      dup3\n        /* \"#utility.yul\":2294:2331   */\n      mstore\n        /* \"#utility.yul\":2219:2337   */\n      pop\n      pop\n      jump\t// out\n        /* \"#utility.yul\":2343:2565   */\n    tag_25:\n        /* \"#utility.yul\":2436:2440   */\n      0x00\n        /* \"#utility.yul\":2474:2476   */\n      0x20\n        /* \"#utility.yul\":2463:2472   */\n      dup3\n        /* \"#utility.yul\":2459:2477   */\n      add\n        /* \"#utility.yul\":2451:2477   */\n      swap1\n      pop\n        /* \"#utility.yul\":2487:2558   */\n      tag_106\n        /* \"#utility.yul\":2555:2556   */\n      0x00\n        /* \"#utility.yul\":2544:2553   */\n      dup4\n        /* \"#utility.yul\":2540:2557   */\n      add\n        /* \"#utility.yul\":2531:2537   */\n      dup5\n        /* \"#utility.yul\":2487:2558   */\n      tag_60\n      jump\t// in\n    tag_106:\n        /* \"#utility.yul\":2343:2565   */\n      swap3\n      swap2\n      pop\n      pop\n      jump\t// out\n        /* \"#utility.yul\":2571:2740   */\n    tag_61:\n        /* \"#utility.yul\":2655:2666   */\n      0x00\n        /* \"#utility.yul\":2689:2695   */\n      dup3\n        /* \"#utility.yul\":2684:2687   */\n      dup3\n        /* \"#utility.yul\":2677:2696   */\n      mstore\n        /* \"#utility.yul\":2729:2733   */\n      0x20\n        /* \"#utility.yul\":2724:2727   */\n      dup3\n        /* \"#utility.yul\":2720:2734   */\n      add\n        /* \"#utility.yul\":2705:2734   */\n      swap1\n      pop\n        /* \"#utility.yul\":2571:2740   */\n      swap3\n      swap2\n      pop\n      pop\n      jump\t// out\n        /* \"#utility.yul\":2746:2912   */\n    tag_62:\n        /* \"#utility.yul\":2886:2904   */\n      0x49542069736e277420656e6f7567682100000000000000000000000000000000\n        /* \"#utility.yul\":2882:2883   */\n      0x00\n        /* \"#utility.yul\":2874:2880   */\n      dup3\n        /* \"#utility.yul\":2870:2884   */\n      add\n        /* \"#utility.yul\":2863:2905   */\n      mstore\n        /* \"#utility.yul\":2746:2912   */\n      pop\n      jump\t// out\n        /* \"#utility.yul\":2918:3284   */\n    tag_63:\n        /* \"#utility.yul\":3060:3063   */\n      0x00\n        /* \"#utility.yul\":3081:3148   */\n      tag_110\n        /* \"#utility.yul\":3145:3147   */\n      0x10\n        /* \"#utility.yul\":3140:3143   */\n      dup4\n        /* \"#utility.yul\":3081:3148   */\n      tag_61\n      jump\t// in\n    tag_110:\n        /* \"#utility.yul\":3074:3148   */\n      swap2\n      pop\n        /* \"#utility.yul\":3157:3250   */\n      tag_111\n        /* \"#utility.yul\":3246:3249   */\n      dup3\n        /* \"#utility.yul\":3157:3250   */\n      tag_62\n      jump\t// in\n    tag_111:\n        /* \"#utility.yul\":3275:3277   */\n      0x20\n        /* \"#utility.yul\":3270:3273   */\n      dup3\n        /* \"#utility.yul\":3266:3278   */\n      add\n        /* \"#utility.yul\":3259:3278   */\n      swap1\n      pop\n        /* \"#utility.yul\":2918:3284   */\n      swap2\n      swap1\n      pop\n      jump\t// out\n        /* \"#utility.yul\":3290:3709   */\n    tag_31:\n        /* \"#utility.yul\":3456:3460   */\n      0x00\n        /* \"#utility.yul\":3494:3496   */\n      0x20\n        /* \"#utility.yul\":3483:3492   */\n      dup3\n        /* \"#utility.yul\":3479:3497   */\n      add\n        /* \"#utility.yul\":3471:3497   */\n      swap1\n      pop\n        /* \"#utility.yul\":3543:3552   */\n      dup2\n        /* \"#utility.yul\":3537:3541   */\n      dup2\n        /* \"#utility.yul\":3533:3553   */\n      sub\n        /* \"#utility.yul\":3529:3530   */\n      0x00\n        /* \"#utility.yul\":3518:3527   */\n      dup4\n        /* \"#utility.yul\":3514:3531   */\n      add\n        /* \"#utility.yul\":3507:3554   */\n      mstore\n        /* \"#utility.yul\":3571:3702   */\n      tag_113\n        /* \"#utility.yul\":3697:3701   */\n      dup2\n        /* \"#utility.yul\":3571:3702   */\n      tag_63\n      jump\t// in\n    tag_113:\n        /* \"#utility.yul\":3563:3702   */\n      swap1\n      pop\n        /* \"#utility.yul\":3290:3709   */\n      swap2\n      swap1\n      pop\n      jump\t// out\n        /* \"#utility.yul\":3715:3895   */\n    tag_64:\n        /* \"#utility.yul\":3763:3840   */\n      0x4e487b7100000000000000000000000000000000000000000000000000000000\n        /* \"#utility.yul\":3760:3761   */\n      0x00\n        /* \"#utility.yul\":3753:3841   */\n      mstore\n        /* \"#utility.yul\":3860:3864   */\n      0x11\n        /* \"#utility.yul\":3857:3858   */\n      0x04\n        /* \"#utility.yul\":3850:3865   */\n      mstore\n        /* \"#utility.yul\":3884:3888   */\n      0x24\n        /* \"#utility.yul\":3881:3882   */\n      0x00\n        /* \"#utility.yul\":3874:3889   */\n      revert\n        /* \"#utility.yul\":3901:4311   */\n    tag_39:\n        /* \"#utility.yul\":3941:3948   */\n      0x00\n        /* \"#utility.yul\":3964:3984   */\n      tag_116\n        /* \"#utility.yul\":3982:3983   */\n      dup3\n        /* \"#utility.yul\":3964:3984   */\n      tag_49\n      jump\t// in\n    tag_116:\n        /* \"#utility.yul\":3959:3984   */\n      swap2\n      pop\n        /* \"#utility.yul\":3998:4018   */\n      tag_117\n        /* \"#utility.yul\":4016:4017   */\n      dup4\n        /* \"#utility.yul\":3998:4018   */\n      tag_49\n      jump\t// in\n    tag_117:\n        /* \"#utility.yul\":3993:4018   */\n      swap3\n      pop\n        /* \"#utility.yul\":4053:4054   */\n      dup3\n        /* \"#utility.yul\":4050:4051   */\n      dup3\n        /* \"#utility.yul\":4046:4055   */\n      mul\n        /* \"#utility.yul\":4075:4105   */\n      tag_118\n        /* \"#utility.yul\":4093:4104   */\n      dup2\n        /* \"#utility.yul\":4075:4105   */\n      tag_49\n      jump\t// in\n    tag_118:\n        /* \"#utility.yul\":4064:4105   */\n      swap2\n      pop\n        /* \"#utility.yul\":4254:4255   */\n      dup3\n        /* \"#utility.yul\":4245:4252   */\n      dup3\n        /* \"#utility.yul\":4241:4256   */\n      div\n        /* \"#utility.yul\":4238:4239   */\n      dup5\n        /* \"#utility.yul\":4235:4257   */\n      eq\n        /* \"#utility.yul\":4215:4216   */\n      dup4\n        /* \"#utility.yul\":4208:4217   */\n      iszero\n        /* \"#utility.yul\":4188:4271   */\n      or\n        /* \"#utility.yul\":4165:4304   */\n      tag_119\n      jumpi\n        /* \"#utility.yul\":4284:4302   */\n      tag_120\n      tag_64\n      jump\t// in\n    tag_120:\n        /* \"#utility.yul\":4165:4304   */\n    tag_119:\n        /* \"#utility.yul\":3949:4311   */\n      pop\n        /* \"#utility.yul\":3901:4311   */\n      swap3\n      swap2\n      pop\n      pop\n      jump\t// out\n        /* \"#utility.yul\":4317:4497   */\n    tag_65:\n        /* \"#utility.yul\":4365:4442   */\n      0x4e487b7100000000000000000000000000000000000000000000000000000000\n        /* \"#utility.yul\":4362:4363   */\n      0x00\n        /* \"#utility.yul\":4355:4443   */\n      mstore\n        /* \"#utility.yul\":4462:4466   */\n      0x12\n        /* \"#utility.yul\":4459:4460   */\n      0x04\n        /* \"#utility.yul\":4452:4467   */\n      mstore\n        /* \"#utility.yul\":4486:4490   */\n      0x24\n        /* \"#utility.yul\":4483:4484   */\n      0x00\n        /* \"#utility.yul\":4476:4491   */\n      revert\n        /* \"#utility.yul\":4503:4688   */\n    tag_41:\n        /* \"#utility.yul\":4543:4544   */\n      0x00\n        /* \"#utility.yul\":4560:4580   */\n      tag_123\n        /* \"#utility.yul\":4578:4579   */\n      dup3\n        /* \"#utility.yul\":4560:4580   */\n      tag_49\n      jump\t// in\n    tag_123:\n        /* \"#utility.yul\":4555:4580   */\n      swap2\n      pop\n        /* \"#utility.yul\":4594:4614   */\n      tag_124\n        /* \"#utility.yul\":4612:4613   */\n      dup4\n        /* \"#utility.yul\":4594:4614   */\n      tag_49\n      jump\t// in\n    tag_124:\n        /* \"#utility.yul\":4589:4614   */\n      swap3\n      pop\n        /* \"#utility.yul\":4633:4634   */\n      dup3\n        /* \"#utility.yul\":4623:4658   */\n      tag_125\n      jumpi\n        /* \"#utility.yul\":4638:4656   */\n      tag_126\n      tag_65\n      jump\t// in\n    tag_126:\n        /* \"#utility.yul\":4623:4658   */\n    tag_125:\n        /* \"#utility.yul\":4680:4681   */\n      dup3\n        /* \"#utility.yul\":4677:4678   */\n      dup3\n        /* \"#utility.yul\":4673:4682   */\n      div\n        /* \"#utility.yul\":4668:4682   */\n      swap1\n      pop\n        /* \"#utility.yul\":4503:4688   */\n      swap3\n      swap2\n      pop\n      pop\n      jump\t// out\n        /* \"#utility.yul\":4694:4799   */\n    tag_66:\n        /* \"#utility.yul\":4730:4737   */\n      0x00\n        /* \"#utility.yul\":4770:4792   */\n      0xffffffffffffffffffff\n        /* \"#utility.yul\":4763:4768   */\n      dup3\n        /* \"#utility.yul\":4759:4793   */\n      and\n        /* \"#utility.yul\":4748:4793   */\n      swap1\n      pop\n        /* \"#utility.yul\":4694:4799   */\n      swap2\n      swap1\n      pop\n      jump\t// out\n        /* \"#utility.yul\":4805:4925   */\n    tag_67:\n        /* \"#utility.yul\":4877:4900   */\n      tag_129\n        /* \"#utility.yul\":4894:4899   */\n      dup2\n        /* \"#utility.yul\":4877:4900   */\n      tag_66\n      jump\t// in\n    tag_129:\n        /* \"#utility.yul\":4870:4875   */\n      dup2\n        /* \"#utility.yul\":4867:4901   */\n      eq\n        /* \"#utility.yul\":4857:4919   */\n      tag_130\n      jumpi\n        /* \"#utility.yul\":4915:4916   */\n      0x00\n        /* \"#utility.yul\":4912:4913   */\n      dup1\n        /* \"#utility.yul\":4905:4917   */\n      revert\n        /* \"#utility.yul\":4857:4919   */\n    tag_130:\n        /* \"#utility.yul\":4805:4925   */\n      pop\n      jump\t// out\n        /* \"#utility.yul\":4931:5072   */\n    tag_68:\n        /* \"#utility.yul\":4987:4992   */\n      0x00\n        /* \"#utility.yul\":5018:5024   */\n      dup2\n        /* \"#utility.yul\":5012:5025   */\n      mload\n        /* \"#utility.yul\":5003:5025   */\n      swap1\n      pop\n        /* \"#utility.yul\":5034:5066   */\n      tag_132\n        /* \"#utility.yul\":5060:5065   */\n      dup2\n        /* \"#utility.yul\":5034:5066   */\n      tag_67\n      jump\t// in\n    tag_132:\n        /* \"#utility.yul\":4931:5072   */\n      swap3\n      swap2\n      pop\n      pop\n      jump\t// out\n        /* \"#utility.yul\":5078:5154   */\n    tag_69:\n        /* \"#utility.yul\":5114:5121   */\n      0x00\n        /* \"#utility.yul\":5143:5148   */\n      dup2\n        /* \"#utility.yul\":5132:5148   */\n      swap1\n      pop\n        /* \"#utility.yul\":5078:5154   */\n      swap2\n      swap1\n      pop\n      jump\t// out\n        /* \"#utility.yul\":5160:5280   */\n    tag_70:\n        /* \"#utility.yul\":5232:5255   */\n      tag_135\n        /* \"#utility.yul\":5249:5254   */\n      dup2\n        /* \"#utility.yul\":5232:5255   */\n      tag_69\n      jump\t// in\n    tag_135:\n        /* \"#utility.yul\":5225:5230   */\n      dup2\n        /* \"#utility.yul\":5222:5256   */\n      eq\n        /* \"#utility.yul\":5212:5274   */\n      tag_136\n      jumpi\n        /* \"#utility.yul\":5270:5271   */\n      0x00\n        /* \"#utility.yul\":5267:5268   */\n      dup1\n        /* \"#utility.yul\":5260:5272   */\n      revert\n        /* \"#utility.yul\":5212:5274   */\n    tag_136:\n        /* \"#utility.yul\":5160:5280   */\n      pop\n      jump\t// out\n        /* \"#utility.yul\":5286:5427   */\n    tag_71:\n        /* \"#utility.yul\":5342:5347   */\n      0x00\n        /* \"#utility.yul\":5373:5379   */\n      dup2\n        /* \"#utility.yul\":5367:5380   */\n      mload\n        /* \"#utility.yul\":5358:5380   */\n      swap1\n      pop\n        /* \"#utility.yul\":5389:5421   */\n      tag_138\n        /* \"#utility.yul\":5415:5420   */\n      dup2\n        /* \"#utility.yul\":5389:5421   */\n      tag_70\n      jump\t// in\n    tag_138:\n        /* \"#utility.yul\":5286:5427   */\n      swap3\n      swap2\n      pop\n      pop\n      jump\t// out\n        /* \"#utility.yul\":5433:5576   */\n    tag_72:\n        /* \"#utility.yul\":5490:5495   */\n      0x00\n        /* \"#utility.yul\":5521:5527   */\n      dup2\n        /* \"#utility.yul\":5515:5528   */\n      mload\n        /* \"#utility.yul\":5506:5528   */\n      swap1\n      pop\n        /* \"#utility.yul\":5537:5570   */\n      tag_140\n        /* \"#utility.yul\":5564:5569   */\n      dup2\n        /* \"#utility.yul\":5537:5570   */\n      tag_58\n      jump\t// in\n    tag_140:\n        /* \"#utility.yul\":5433:5576   */\n      swap3\n      swap2\n      pop\n      pop\n      jump\t// out\n        /* \"#utility.yul\":5582:6553   */\n    tag_46:\n        /* \"#utility.yul\":5685:5691   */\n      0x00\n        /* \"#utility.yul\":5693:5699   */\n      dup1\n        /* \"#utility.yul\":5701:5707   */\n      0x00\n        /* \"#utility.yul\":5709:5715   */\n      dup1\n        /* \"#utility.yul\":5717:5723   */\n      0x00\n        /* \"#utility.yul\":5766:5769   */\n      0xa0\n        /* \"#utility.yul\":5754:5763   */\n      dup7\n        /* \"#utility.yul\":5745:5752   */\n      dup9\n        /* \"#utility.yul\":5741:5764   */\n      sub\n        /* \"#utility.yul\":5737:5770   */\n      slt\n        /* \"#utility.yul\":5734:5854   */\n      iszero\n      tag_142\n      jumpi\n        /* \"#utility.yul\":5773:5852   */\n      tag_143\n      tag_52\n      jump\t// in\n    tag_143:\n        /* \"#utility.yul\":5734:5854   */\n    tag_142:\n        /* \"#utility.yul\":5893:5894   */\n      0x00\n        /* \"#utility.yul\":5918:5981   */\n      tag_144\n        /* \"#utility.yul\":5973:5980   */\n      dup9\n        /* \"#utility.yul\":5964:5970   */\n      dup3\n        /* \"#utility.yul\":5953:5962   */\n      dup10\n        /* \"#utility.yul\":5949:5971   */\n      add\n        /* \"#utility.yul\":5918:5981   */\n      tag_68\n      jump\t// in\n    tag_144:\n        /* \"#utility.yul\":5908:5981   */\n      swap6\n      pop\n        /* \"#utility.yul\":5864:5991   */\n      pop\n        /* \"#utility.yul\":6030:6032   */\n      0x20\n        /* \"#utility.yul\":6056:6119   */\n      tag_145\n        /* \"#utility.yul\":6111:6118   */\n      dup9\n        /* \"#utility.yul\":6102:6108   */\n      dup3\n        /* \"#utility.yul\":6091:6100   */\n      dup10\n        /* \"#utility.yul\":6087:6109   */\n      add\n        /* \"#utility.yul\":6056:6119   */\n      tag_71\n      jump\t// in\n    tag_145:\n        /* \"#utility.yul\":6046:6119   */\n      swap5\n      pop\n        /* \"#utility.yul\":6001:6129   */\n      pop\n        /* \"#utility.yul\":6168:6170   */\n      0x40\n        /* \"#utility.yul\":6194:6258   */\n      tag_146\n        /* \"#utility.yul\":6250:6257   */\n      dup9\n        /* \"#utility.yul\":6241:6247   */\n      dup3\n        /* \"#utility.yul\":6230:6239   */\n      dup10\n        /* \"#utility.yul\":6226:6248   */\n      add\n        /* \"#utility.yul\":6194:6258   */\n      tag_72\n      jump\t// in\n    tag_146:\n        /* \"#utility.yul\":6184:6258   */\n      swap4\n      pop\n        /* \"#utility.yul\":6139:6268   */\n      pop\n        /* \"#utility.yul\":6307:6309   */\n      0x60\n        /* \"#utility.yul\":6333:6397   */\n      tag_147\n        /* \"#utility.yul\":6389:6396   */\n      dup9\n        /* \"#utility.yul\":6380:6386   */\n      dup3\n        /* \"#utility.yul\":6369:6378   */\n      dup10\n        /* \"#utility.yul\":6365:6387   */\n      add\n        /* \"#utility.yul\":6333:6397   */\n      tag_72\n      jump\t// in\n    tag_147:\n        /* \"#utility.yul\":6323:6397   */\n      swap3\n      pop\n        /* \"#utility.yul\":6278:6407   */\n      pop\n        /* \"#utility.yul\":6446:6449   */\n      0x80\n        /* \"#utility.yul\":6473:6536   */\n      tag_148\n        /* \"#utility.yul\":6528:6535   */\n      dup9\n        /* \"#utility.yul\":6519:6525   */\n      dup3\n        /* \"#utility.yul\":6508:6517   */\n      dup10\n        /* \"#utility.yul\":6504:6526   */\n      add\n        /* \"#utility.yul\":6473:6536   */\n      tag_68\n      jump\t// in\n    tag_148:\n        /* \"#utility.yul\":6463:6536   */\n      swap2\n      pop\n        /* \"#utility.yul\":6417:6546   */\n      pop\n        /* \"#utility.yul\":5582:6553   */\n      swap3\n      swap6\n      pop\n      swap3\n      swap6\n      swap1\n      swap4\n      pop\n      jump\t// out\n        /* \"#utility.yul\":6559:7115   */\n    tag_48:\n        /* \"#utility.yul\":6598:6605   */\n      0x00\n        /* \"#utility.yul\":6621:6640   */\n      tag_150\n        /* \"#utility.yul\":6638:6639   */\n      dup3\n        /* \"#utility.yul\":6621:6640   */\n      tag_69\n      jump\t// in\n    tag_150:\n        /* \"#utility.yul\":6616:6640   */\n      swap2\n      pop\n        /* \"#utility.yul\":6654:6673   */\n      tag_151\n        /* \"#utility.yul\":6671:6672   */\n      dup4\n        /* \"#utility.yul\":6654:6673   */\n      tag_69\n      jump\t// in\n    tag_151:\n        /* \"#utility.yul\":6649:6673   */\n      swap3\n      pop\n        /* \"#utility.yul\":6708:6709   */\n      dup3\n        /* \"#utility.yul\":6705:6706   */\n      dup3\n        /* \"#utility.yul\":6701:6710   */\n      mul\n        /* \"#utility.yul\":6730:6759   */\n      tag_152\n        /* \"#utility.yul\":6747:6758   */\n      dup2\n        /* \"#utility.yul\":6730:6759   */\n      tag_69\n      jump\t// in\n    tag_152:\n        /* \"#utility.yul\":6719:6759   */\n      swap2\n      pop\n        /* \"#utility.yul\":6817:6883   */\n      0x8000000000000000000000000000000000000000000000000000000000000000\n        /* \"#utility.yul\":6814:6815   */\n      dup5\n        /* \"#utility.yul\":6811:6884   */\n      eq\n        /* \"#utility.yul\":6807:6808   */\n      0x00\n        /* \"#utility.yul\":6804:6805   */\n      dup5\n        /* \"#utility.yul\":6800:6809   */\n      slt\n        /* \"#utility.yul\":6796:6885   */\n      and\n        /* \"#utility.yul\":6793:6908   */\n      iszero\n      tag_153\n      jumpi\n        /* \"#utility.yul\":6888:6906   */\n      tag_154\n      tag_64\n      jump\t// in\n    tag_154:\n        /* \"#utility.yul\":6793:6908   */\n    tag_153:\n        /* \"#utility.yul\":7058:7059   */\n      dup3\n        /* \"#utility.yul\":7049:7056   */\n      dup3\n        /* \"#utility.yul\":7044:7060   */\n      sdiv\n        /* \"#utility.yul\":7041:7042   */\n      dup5\n        /* \"#utility.yul\":7038:7061   */\n      eq\n        /* \"#utility.yul\":7018:7019   */\n      dup4\n        /* \"#utility.yul\":7011:7020   */\n      iszero\n        /* \"#utility.yul\":6991:7075   */\n      or\n        /* \"#utility.yul\":6968:7108   */\n      tag_155\n      jumpi\n        /* \"#utility.yul\":7088:7106   */\n      tag_156\n      tag_64\n      jump\t// in\n    tag_156:\n        /* \"#utility.yul\":6968:7108   */\n    tag_155:\n        /* \"#utility.yul\":6606:7115   */\n      pop\n        /* \"#utility.yul\":6559:7115   */\n      swap3\n      swap2\n      pop\n      pop\n      jump\t// out\n\n    auxdata: 0xa2646970667358221220f167a595d8551f4d225a6a7d714c38a54114fc379777a5e5ec7f6d87e158bd3764736f6c63430008120033\n}\n",
				"bytecode": {
					"linkReferences": {},
					"object": "6080604052603260005534801561001557600080fd5b50610772806100256000396000f3fe60806040526004361061003f5760003560e01c8063358e8d0014610044578063ac7eba221461006f578063d1d9165d146100ac578063dc0d3dff146100b6575b600080fd5b34801561005057600080fd5b506100596100f3565b6040516100669190610340565b60405180910390f35b34801561007b57600080fd5b50610096600480360381019061009191906103be565b6100f9565b6040516100a39190610340565b60405180910390f35b6100b4610111565b005b3480156100c257600080fd5b506100dd60048036038101906100d89190610417565b610206565b6040516100ea9190610453565b60405180910390f35b60005481565b60026020528060005260406000206000915090505481565b60005461011d34610245565b1161015d576040517f08c379a0000000000000000000000000000000000000000000000000000000008152600401610154906104cb565b60405180910390fd5b6001339080600181540180825580915050600190039060005260206000200160009091909190916101000a81548173ffffffffffffffffffffffffffffffffffffffff021916908373ffffffffffffffffffffffffffffffffffffffff16021790555034600260003373ffffffffffffffffffffffffffffffffffffffff1673ffffffffffffffffffffffffffffffffffffffff16815260200190815260200160002081905550565b6001818154811061021657600080fd5b906000526020600020016000915054906101000a900473ffffffffffffffffffffffffffffffffffffffff1681565b60008061025061027f565b90506000670de0b6b3a76400008483610269919061051a565b610273919061058b565b90508092505050919050565b60008073694aa1769357215de4fac081bf1f309adc325306905060008173ffffffffffffffffffffffffffffffffffffffff1663feaf968c6040518163ffffffff1660e01b815260040160a060405180830381865afa1580156102e6573d6000803e3d6000fd5b505050506040513d601f19601f8201168201806040525081019061030a9190610649565b5050509150506305f5e1008161032091906106c4565b9250505090565b6000819050919050565b61033a81610327565b82525050565b60006020820190506103556000830184610331565b92915050565b600080fd5b600073ffffffffffffffffffffffffffffffffffffffff82169050919050565b600061038b82610360565b9050919050565b61039b81610380565b81146103a657600080fd5b50565b6000813590506103b881610392565b92915050565b6000602082840312156103d4576103d361035b565b5b60006103e2848285016103a9565b91505092915050565b6103f481610327565b81146103ff57600080fd5b50565b600081359050610411816103eb565b92915050565b60006020828403121561042d5761042c61035b565b5b600061043b84828501610402565b91505092915050565b61044d81610380565b82525050565b60006020820190506104686000830184610444565b92915050565b600082825260208201905092915050565b7f49542069736e277420656e6f7567682100000000000000000000000000000000600082015250565b60006104b560108361046e565b91506104c08261047f565b602082019050919050565b600060208201905081810360008301526104e4816104a8565b9050919050565b7f4e487b7100000000000000000000000000000000000000000000000000000000600052601160045260246000fd5b600061052582610327565b915061053083610327565b925082820261053e81610327565b91508282048414831517610555576105546104eb565b5b5092915050565b7f4e487b7100000000000000000000000000000000000000000000000000000000600052601260045260246000fd5b600061059682610327565b91506105a183610327565b9250826105b1576105b061055c565b5b828204905092915050565b600069ffffffffffffffffffff82169050919050565b6105db816105bc565b81146105e657600080fd5b50565b6000815190506105f8816105d2565b92915050565b6000819050919050565b610611816105fe565b811461061c57600080fd5b50565b60008151905061062e81610608565b92915050565b600081519050610643816103eb565b92915050565b600080600080600060a086880312156106655761066461035b565b5b6000610673888289016105e9565b95505060206106848882890161061f565b945050604061069588828901610634565b93505060606106a688828901610634565b92505060806106b7888289016105e9565b9150509295509295909350565b60006106cf826105fe565b91506106da836105fe565b92508282026106e8816105fe565b91507f800000000000000000000000000000000000000000000000000000000000000084146000841216156107205761071f6104eb565b5b8282058414831517610735576107346104eb565b5b509291505056fea2646970667358221220f167a595d8551f4d225a6a7d714c38a54114fc379777a5e5ec7f6d87e158bd3764736f6c63430008120033",
					"opcodes": "PUSH1 0x80 PUSH1 0x40 MSTORE PUSH1 0x32 PUSH1 0x0 SSTORE CALLVALUE DUP1 ISZERO PUSH2 0x15 JUMPI PUSH1 0x0 DUP1 REVERT JUMPDEST POP PUSH2 0x772 DUP1 PUSH2 0x25 PUSH1 0x0 CODECOPY PUSH1 0x0 RETURN INVALID PUSH1 0x80 PUSH1 0x40 MSTORE PUSH1 0x4 CALLDATASIZE LT PUSH2 0x3F JUMPI PUSH1 0x0 CALLDATALOAD PUSH1 0xE0 SHR DUP1 PUSH4 0x358E8D00 EQ PUSH2 0x44 JUMPI DUP1 PUSH4 0xAC7EBA22 EQ PUSH2 0x6F JUMPI DUP1 PUSH4 0xD1D9165D EQ PUSH2 0xAC JUMPI DUP1 PUSH4 0xDC0D3DFF EQ PUSH2 0xB6 JUMPI JUMPDEST PUSH1 0x0 DUP1 REVERT JUMPDEST CALLVALUE DUP1 ISZERO PUSH2 0x50 JUMPI PUSH1 0x0 DUP1 REVERT JUMPDEST POP PUSH2 0x59 PUSH2 0xF3 JUMP JUMPDEST PUSH1 0x40 MLOAD PUSH2 0x66 SWAP2 SWAP1 PUSH2 0x340 JUMP JUMPDEST PUSH1 0x40 MLOAD DUP1 SWAP2 SUB SWAP1 RETURN JUMPDEST CALLVALUE DUP1 ISZERO PUSH2 0x7B JUMPI PUSH1 0x0 DUP1 REVERT JUMPDEST POP PUSH2 0x96 PUSH1 0x4 DUP1 CALLDATASIZE SUB DUP2 ADD SWAP1 PUSH2 0x91 SWAP2 SWAP1 PUSH2 0x3BE JUMP JUMPDEST PUSH2 0xF9 JUMP JUMPDEST PUSH1 0x40 MLOAD PUSH2 0xA3 SWAP2 SWAP1 PUSH2 0x340 JUMP JUMPDEST PUSH1 0x40 MLOAD DUP1 SWAP2 SUB SWAP1 RETURN JUMPDEST PUSH2 0xB4 PUSH2 0x111 JUMP JUMPDEST STOP JUMPDEST CALLVALUE DUP1 ISZERO PUSH2 0xC2 JUMPI PUSH1 0x0 DUP1 REVERT JUMPDEST POP PUSH2 0xDD PUSH1 0x4 DUP1 CALLDATASIZE SUB DUP2 ADD SWAP1 PUSH2 0xD8 SWAP2 SWAP1 PUSH2 0x417 JUMP JUMPDEST PUSH2 0x206 JUMP JUMPDEST PUSH1 0x40 MLOAD PUSH2 0xEA SWAP2 SWAP1 PUSH2 0x453 JUMP JUMPDEST PUSH1 0x40 MLOAD DUP1 SWAP2 SUB SWAP1 RETURN JUMPDEST PUSH1 0x0 SLOAD DUP2 JUMP JUMPDEST PUSH1 0x2 PUSH1 0x20 MSTORE DUP1 PUSH1 0x0 MSTORE PUSH1 0x40 PUSH1 0x0 KECCAK256 PUSH1 0x0 SWAP2 POP SWAP1 POP SLOAD DUP2 JUMP JUMPDEST PUSH1 0x0 SLOAD PUSH2 0x11D CALLVALUE PUSH2 0x245 JUMP JUMPDEST GT PUSH2 0x15D JUMPI PUSH1 0x40 MLOAD PUSH32 0x8C379A000000000000000000000000000000000000000000000000000000000 DUP2 MSTORE PUSH1 0x4 ADD PUSH2 0x154 SWAP1 PUSH2 0x4CB JUMP JUMPDEST PUSH1 0x40 MLOAD DUP1 SWAP2 SUB SWAP1 REVERT JUMPDEST PUSH1 0x1 CALLER SWAP1 DUP1 PUSH1 0x1 DUP2 SLOAD ADD DUP1 DUP3 SSTORE DUP1 SWAP2 POP POP PUSH1 0x1 SWAP1 SUB SWAP1 PUSH1 0x0 MSTORE PUSH1 0x20 PUSH1 0x0 KECCAK256 ADD PUSH1 0x0 SWAP1 SWAP2 SWAP1 SWAP2 SWAP1 SWAP2 PUSH2 0x100 EXP DUP2 SLOAD DUP2 PUSH20 0xFFFFFFFFFFFFFFFFFFFFFFFFFFFFFFFFFFFFFFFF MUL NOT AND SWAP1 DUP4 PUSH20 0xFFFFFFFFFFFFFFFFFFFFFFFFFFFFFFFFFFFFFFFF AND MUL OR SWAP1 SSTORE POP CALLVALUE PUSH1 0x2 PUSH1 0x0 CALLER PUSH20 0xFFFFFFFFFFFFFFFFFFFFFFFFFFFFFFFFFFFFFFFF AND PUSH20 0xFFFFFFFFFFFFFFFFFFFFFFFFFFFFFFFFFFFFFFFF AND DUP2 MSTORE PUSH1 0x20 ADD SWAP1 DUP2 MSTORE PUSH1 0x20 ADD PUSH1 0x0 KECCAK256 DUP2 SWAP1 SSTORE POP JUMP JUMPDEST PUSH1 0x1 DUP2 DUP2 SLOAD DUP2 LT PUSH2 0x216 JUMPI PUSH1 0x0 DUP1 REVERT JUMPDEST SWAP1 PUSH1 0x0 MSTORE PUSH1 0x20 PUSH1 0x0 KECCAK256 ADD PUSH1 0x0 SWAP2 POP SLOAD SWAP1 PUSH2 0x100 EXP SWAP1 DIV PUSH20 0xFFFFFFFFFFFFFFFFFFFFFFFFFFFFFFFFFFFFFFFF AND DUP2 JUMP JUMPDEST PUSH1 0x0 DUP1 PUSH2 0x250 PUSH2 0x27F JUMP JUMPDEST SWAP1 POP PUSH1 0x0 PUSH8 0xDE0B6B3A7640000 DUP5 DUP4 PUSH2 0x269 SWAP2 SWAP1 PUSH2 0x51A JUMP JUMPDEST PUSH2 0x273 SWAP2 SWAP1 PUSH2 0x58B JUMP JUMPDEST SWAP1 POP DUP1 SWAP3 POP POP POP SWAP2 SWAP1 POP JUMP JUMPDEST PUSH1 0x0 DUP1 PUSH20 0x694AA1769357215DE4FAC081BF1F309ADC325306 SWAP1 POP PUSH1 0x0 DUP2 PUSH20 0xFFFFFFFFFFFFFFFFFFFFFFFFFFFFFFFFFFFFFFFF AND PUSH4 0xFEAF968C PUSH1 0x40 MLOAD DUP2 PUSH4 0xFFFFFFFF AND PUSH1 0xE0 SHL DUP2 MSTORE PUSH1 0x4 ADD PUSH1 0xA0 PUSH1 0x40 MLOAD DUP1 DUP4 SUB DUP2 DUP7 GAS STATICCALL ISZERO DUP1 ISZERO PUSH2 0x2E6 JUMPI RETURNDATASIZE PUSH1 0x0 DUP1 RETURNDATACOPY RETURNDATASIZE PUSH1 0x0 REVERT JUMPDEST POP POP POP POP PUSH1 0x40 MLOAD RETURNDATASIZE PUSH1 0x1F NOT PUSH1 0x1F DUP3 ADD AND DUP3 ADD DUP1 PUSH1 0x40 MSTORE POP DUP2 ADD SWAP1 PUSH2 0x30A SWAP2 SWAP1 PUSH2 0x649 JUMP JUMPDEST POP POP POP SWAP2 POP POP PUSH4 0x5F5E100 DUP2 PUSH2 0x320 SWAP2 SWAP1 PUSH2 0x6C4 JUMP JUMPDEST SWAP3 POP POP POP SWAP1 JUMP JUMPDEST PUSH1 0x0 DUP2 SWAP1 POP SWAP2 SWAP1 POP JUMP JUMPDEST PUSH2 0x33A DUP2 PUSH2 0x327 JUMP JUMPDEST DUP3 MSTORE POP POP JUMP JUMPDEST PUSH1 0x0 PUSH1 0x20 DUP3 ADD SWAP1 POP PUSH2 0x355 PUSH1 0x0 DUP4 ADD DUP5 PUSH2 0x331 JUMP JUMPDEST SWAP3 SWAP2 POP POP JUMP JUMPDEST PUSH1 0x0 DUP1 REVERT JUMPDEST PUSH1 0x0 PUSH20 0xFFFFFFFFFFFFFFFFFFFFFFFFFFFFFFFFFFFFFFFF DUP3 AND SWAP1 POP SWAP2 SWAP1 POP JUMP JUMPDEST PUSH1 0x0 PUSH2 0x38B DUP3 PUSH2 0x360 JUMP JUMPDEST SWAP1 POP SWAP2 SWAP1 POP JUMP JUMPDEST PUSH2 0x39B DUP2 PUSH2 0x380 JUMP JUMPDEST DUP2 EQ PUSH2 0x3A6 JUMPI PUSH1 0x0 DUP1 REVERT JUMPDEST POP JUMP JUMPDEST PUSH1 0x0 DUP2 CALLDATALOAD SWAP1 POP PUSH2 0x3B8 DUP2 PUSH2 0x392 JUMP JUMPDEST SWAP3 SWAP2 POP POP JUMP JUMPDEST PUSH1 0x0 PUSH1 0x20 DUP3 DUP5 SUB SLT ISZERO PUSH2 0x3D4 JUMPI PUSH2 0x3D3 PUSH2 0x35B JUMP JUMPDEST JUMPDEST PUSH1 0x0 PUSH2 0x3E2 DUP5 DUP3 DUP6 ADD PUSH2 0x3A9 JUMP JUMPDEST SWAP2 POP POP SWAP3 SWAP2 POP POP JUMP JUMPDEST PUSH2 0x3F4 DUP2 PUSH2 0x327 JUMP JUMPDEST DUP2 EQ PUSH2 0x3FF JUMPI PUSH1 0x0 DUP1 REVERT JUMPDEST POP JUMP JUMPDEST PUSH1 0x0 DUP2 CALLDATALOAD SWAP1 POP PUSH2 0x411 DUP2 PUSH2 0x3EB JUMP JUMPDEST SWAP3 SWAP2 POP POP JUMP JUMPDEST PUSH1 0x0 PUSH1 0x20 DUP3 DUP5 SUB SLT ISZERO PUSH2 0x42D JUMPI PUSH2 0x42C PUSH2 0x35B JUMP JUMPDEST JUMPDEST PUSH1 0x0 PUSH2 0x43B DUP5 DUP3 DUP6 ADD PUSH2 0x402 JUMP JUMPDEST SWAP2 POP POP SWAP3 SWAP2 POP POP JUMP JUMPDEST PUSH2 0x44D DUP2 PUSH2 0x380 JUMP JUMPDEST DUP3 MSTORE POP POP JUMP JUMPDEST PUSH1 0x0 PUSH1 0x20 DUP3 ADD SWAP1 POP PUSH2 0x468 PUSH1 0x0 DUP4 ADD DUP5 PUSH2 0x444 JUMP JUMPDEST SWAP3 SWAP2 POP POP JUMP JUMPDEST PUSH1 0x0 DUP3 DUP3 MSTORE PUSH1 0x20 DUP3 ADD SWAP1 POP SWAP3 SWAP2 POP POP JUMP JUMPDEST PUSH32 0x49542069736E277420656E6F7567682100000000000000000000000000000000 PUSH1 0x0 DUP3 ADD MSTORE POP JUMP JUMPDEST PUSH1 0x0 PUSH2 0x4B5 PUSH1 0x10 DUP4 PUSH2 0x46E JUMP JUMPDEST SWAP2 POP PUSH2 0x4C0 DUP3 PUSH2 0x47F JUMP JUMPDEST PUSH1 0x20 DUP3 ADD SWAP1 POP SWAP2 SWAP1 POP JUMP JUMPDEST PUSH1 0x0 PUSH1 0x20 DUP3 ADD SWAP1 POP DUP2 DUP2 SUB PUSH1 0x0 DUP4 ADD MSTORE PUSH2 0x4E4 DUP2 PUSH2 0x4A8 JUMP JUMPDEST SWAP1 POP SWAP2 SWAP1 POP JUMP JUMPDEST PUSH32 0x4E487B7100000000000000000000000000000000000000000000000000000000 PUSH1 0x0 MSTORE PUSH1 0x11 PUSH1 0x4 MSTORE PUSH1 0x24 PUSH1 0x0 REVERT JUMPDEST PUSH1 0x0 PUSH2 0x525 DUP3 PUSH2 0x327 JUMP JUMPDEST SWAP2 POP PUSH2 0x530 DUP4 PUSH2 0x327 JUMP JUMPDEST SWAP3 POP DUP3 DUP3 MUL PUSH2 0x53E DUP2 PUSH2 0x327 JUMP JUMPDEST SWAP2 POP DUP3 DUP3 DIV DUP5 EQ DUP4 ISZERO OR PUSH2 0x555 JUMPI PUSH2 0x554 PUSH2 0x4EB JUMP JUMPDEST JUMPDEST POP SWAP3 SWAP2 POP POP JUMP JUMPDEST PUSH32 0x4E487B7100000000000000000000000000000000000000000000000000000000 PUSH1 0x0 MSTORE PUSH1 0x12 PUSH1 0x4 MSTORE PUSH1 0x24 PUSH1 0x0 REVERT JUMPDEST PUSH1 0x0 PUSH2 0x596 DUP3 PUSH2 0x327 JUMP JUMPDEST SWAP2 POP PUSH2 0x5A1 DUP4 PUSH2 0x327 JUMP JUMPDEST SWAP3 POP DUP3 PUSH2 0x5B1 JUMPI PUSH2 0x5B0 PUSH2 0x55C JUMP JUMPDEST JUMPDEST DUP3 DUP3 DIV SWAP1 POP SWAP3 SWAP2 POP POP JUMP JUMPDEST PUSH1 0x0 PUSH10 0xFFFFFFFFFFFFFFFFFFFF DUP3 AND SWAP1 POP SWAP2 SWAP1 POP JUMP JUMPDEST PUSH2 0x5DB DUP2 PUSH2 0x5BC JUMP JUMPDEST DUP2 EQ PUSH2 0x5E6 JUMPI PUSH1 0x0 DUP1 REVERT JUMPDEST POP JUMP JUMPDEST PUSH1 0x0 DUP2 MLOAD SWAP1 POP PUSH2 0x5F8 DUP2 PUSH2 0x5D2 JUMP JUMPDEST SWAP3 SWAP2 POP POP JUMP JUMPDEST PUSH1 0x0 DUP2 SWAP1 POP SWAP2 SWAP1 POP JUMP JUMPDEST PUSH2 0x611 DUP2 PUSH2 0x5FE JUMP JUMPDEST DUP2 EQ PUSH2 0x61C JUMPI PUSH1 0x0 DUP1 REVERT JUMPDEST POP JUMP JUMPDEST PUSH1 0x0 DUP2 MLOAD SWAP1 POP PUSH2 0x62E DUP2 PUSH2 0x608 JUMP JUMPDEST SWAP3 SWAP2 POP POP JUMP JUMPDEST PUSH1 0x0 DUP2 MLOAD SWAP1 POP PUSH2 0x643 DUP2 PUSH2 0x3EB JUMP JUMPDEST SWAP3 SWAP2 POP POP JUMP JUMPDEST PUSH1 0x0 DUP1 PUSH1 0x0 DUP1 PUSH1 0x0 PUSH1 0xA0 DUP7 DUP9 SUB SLT ISZERO PUSH2 0x665 JUMPI PUSH2 0x664 PUSH2 0x35B JUMP JUMPDEST JUMPDEST PUSH1 0x0 PUSH2 0x673 DUP9 DUP3 DUP10 ADD PUSH2 0x5E9 JUMP JUMPDEST SWAP6 POP POP PUSH1 0x20 PUSH2 0x684 DUP9 DUP3 DUP10 ADD PUSH2 0x61F JUMP JUMPDEST SWAP5 POP POP PUSH1 0x40 PUSH2 0x695 DUP9 DUP3 DUP10 ADD PUSH2 0x634 JUMP JUMPDEST SWAP4 POP POP PUSH1 0x60 PUSH2 0x6A6 DUP9 DUP3 DUP10 ADD PUSH2 0x634 JUMP JUMPDEST SWAP3 POP POP PUSH1 0x80 PUSH2 0x6B7 DUP9 DUP3 DUP10 ADD PUSH2 0x5E9 JUMP JUMPDEST SWAP2 POP POP SWAP3 SWAP6 POP SWAP3 SWAP6 SWAP1 SWAP4 POP JUMP JUMPDEST PUSH1 0x0 PUSH2 0x6CF DUP3 PUSH2 0x5FE JUMP JUMPDEST SWAP2 POP PUSH2 0x6DA DUP4 PUSH2 0x5FE JUMP JUMPDEST SWAP3 POP DUP3 DUP3 MUL PUSH2 0x6E8 DUP2 PUSH2 0x5FE JUMP JUMPDEST SWAP2 POP PUSH32 0x8000000000000000000000000000000000000000000000000000000000000000 DUP5 EQ PUSH1 0x0 DUP5 SLT AND ISZERO PUSH2 0x720 JUMPI PUSH2 0x71F PUSH2 0x4EB JUMP JUMPDEST JUMPDEST DUP3 DUP3 SDIV DUP5 EQ DUP4 ISZERO OR PUSH2 0x735 JUMPI PUSH2 0x734 PUSH2 0x4EB JUMP JUMPDEST JUMPDEST POP SWAP3 SWAP2 POP POP JUMP INVALID LOG2 PUSH5 0x6970667358 0x22 SLT KECCAK256 CALL PUSH8 0xA595D8551F4D225A PUSH11 0x7D714C38A54114FC379777 0xA5 0xE5 0xEC PUSH32 0x6D87E158BD3764736F6C63430008120033000000000000000000000000000000 "
				},
				"gasEstimates": {
					"creation": {
						"codeDepositCost": "381200",
						"executionCost": "22524",
						"totalCost": "403724"
					},
					"external": {
						"addrtofund(address)": "2814",
						"funders(uint256)": "5000",
						"fundme()": "infinite",
						"minamt()": "2407"
					}
				},
				"methodIdentifiers": {
					"addrtofund(address)": "ac7eba22",
					"funders(uint256)": "dc0d3dff",
					"fundme()": "d1d9165d",
					"minamt()": "358e8d00"
				}
			},
			"storageLayout": {
				"storage": [
					{
						"astId": 55,
						"contract": "contracts/fundMe.sol:FundMe",
						"label": "minamt",
						"offset": 0,
						"slot": "0",
						"type": "t_uint256"
					},
					{
						"astId": 58,
						"contract": "contracts/fundMe.sol:FundMe",
						"label": "funders",
						"offset": 0,
						"slot": "1",
						"type": "t_array(t_address)dyn_storage"
					},
					{
						"astId": 62,
						"contract": "contracts/fundMe.sol:FundMe",
						"label": "addrtofund",
						"offset": 0,
						"slot": "2",
						"type": "t_mapping(t_address,t_uint256)"
					}
				],
				"types": {
					"t_address": {
						"encoding": "inplace",
						"label": "address",
						"numberOfBytes": "20"
					},
					"t_array(t_address)dyn_storage": {
						"base": "t_address",
						"encoding": "dynamic_array",
						"label": "address[]",
						"numberOfBytes": "32"
					},
					"t_mapping(t_address,t_uint256)": {
						"encoding": "mapping",
						"key": "t_address",
						"label": "mapping(address => uint256)",
						"numberOfBytes": "32",
						"value": "t_uint256"
					},
					"t_uint256": {
						"encoding": "inplace",
						"label": "uint256",
						"numberOfBytes": "32"
					}
				}
			},
			"userdoc": {
				"kind": "user",
				"methods": {},
				"version": 1
			}
		}
	}
}