{
	"data": {
		"bytecode": {
			"linkReferences": {},
			"object": "608060405234801561001057600080fd5b506108dd806100206000396000f3fe608060405234801561001057600080fd5b506004361061004c5760003560e01c80631f44f6e6146100515780632dfa249b1461006d5780637b6ab42b1461009d578063c64c7e14146100b9575b600080fd5b61006b6004803603810190610066919061031a565b6100ea565b005b6100876004803603810190610082919061031a565b6100ed565b60405161009491906103d7565b60405180910390f35b6100b760048036038101906100b2919061052e565b61018d565b005b6100d360048036038101906100ce919061031a565b610214565b6040516100e1929190610599565b60405180910390f35b50565b6001602052806000526040600020600091509050805461010c906105f8565b80601f0160208091040260200160405190810160405280929190818152602001828054610138906105f8565b80156101855780601f1061015a57610100808354040283529160200191610185565b820191906000526020600020905b81548152906001019060200180831161016857829003601f168201915b505050505081565b6000604051806040016040528083815260200184815250908060018154018082558091505060019003906000526020600020906002020160009091909190915060008201518160000190816101e291906107d5565b506020820151816001015550508060016000848152602001908152602001600020908161020f91906107d5565b505050565b6000818154811061022457600080fd5b9060005260206000209060020201600091509050806000018054610247906105f8565b80601f0160208091040260200160405190810160405280929190818152602001828054610273906105f8565b80156102c05780601f10610295576101008083540402835291602001916102c0565b820191906000526020600020905b8154815290600101906020018083116102a357829003601f168201915b5050505050908060010154905082565b6000604051905090565b600080fd5b600080fd5b6000819050919050565b6102f7816102e4565b811461030257600080fd5b50565b600081359050610314816102ee565b92915050565b6000602082840312156103305761032f6102da565b5b600061033e84828501610305565b91505092915050565b600081519050919050565b600082825260208201905092915050565b60005b83811015610381578082015181840152602081019050610366565b60008484015250505050565b6000601f19601f8301169050919050565b60006103a982610347565b6103b38185610352565b93506103c3818560208601610363565b6103cc8161038d565b840191505092915050565b600060208201905081810360008301526103f1818461039e565b905092915050565b600080fd5b600080fd5b7f4e487b7100000000000000000000000000000000000000000000000000000000600052604160045260246000fd5b61043b8261038d565b810181811067ffffffffffffffff8211171561045a57610459610403565b5b80604052505050565b600061046d6102d0565b90506104798282610432565b919050565b600067ffffffffffffffff82111561049957610498610403565b5b6104a28261038d565b9050602081019050919050565b82818337600083830152505050565b60006104d16104cc8461047e565b610463565b9050828152602081018484840111156104ed576104ec6103fe565b5b6104f88482856104af565b509392505050565b600082601f830112610515576105146103f9565b5b81356105258482602086016104be565b91505092915050565b60008060408385031215610545576105446102da565b5b600061055385828601610305565b925050602083013567ffffffffffffffff811115610574576105736102df565b5b61058085828601610500565b9150509250929050565b610593816102e4565b82525050565b600060408201905081810360008301526105b3818561039e565b90506105c2602083018461058a565b9392505050565b7f4e487b7100000000000000000000000000000000000000000000000000000000600052602260045260246000fd5b6000600282049050600182168061061057607f821691505b602082108103610623576106226105c9565b5b50919050565b60008190508160005260206000209050919050565b60006020601f8301049050919050565b600082821b905092915050565b60006008830261068b7fffffffffffffffffffffffffffffffffffffffffffffffffffffffffffffffff8261064e565b610695868361064e565b95508019841693508086168417925050509392505050565b6000819050919050565b60006106d26106cd6106c8846102e4565b6106ad565b6102e4565b9050919050565b6000819050919050565b6106ec836106b7565b6107006106f8826106d9565b84845461065b565b825550505050565b600090565b610715610708565b6107208184846106e3565b505050565b5b818110156107445761073960008261070d565b600181019050610726565b5050565b601f8211156107895761075a81610629565b6107638461063e565b81016020851015610772578190505b61078661077e8561063e565b830182610725565b50505b505050565b600082821c905092915050565b60006107ac6000198460080261078e565b1980831691505092915050565b60006107c5838361079b565b9150826002028217905092915050565b6107de82610347565b67ffffffffffffffff8111156107f7576107f6610403565b5b61080182546105f8565b61080c828285610748565b600060209050601f83116001811461083f576000841561082d578287015190505b61083785826107b9565b86555061089f565b601f19841661084d86610629565b60005b8281101561087557848901518255600182019150602085019450602081019050610850565b86831015610892578489015161088e601f89168261079b565b8355505b6001600288020188555050505b50505050505056fea2646970667358221220726991499f1c02b3a320ed8dc16f4e3a14109562377ed9713b9e4f878903b3b564736f6c63430008120033",
			"opcodes": "PUSH1 0x80 PUSH1 0x40 MSTORE CALLVALUE DUP1 ISZERO PUSH2 0x10 JUMPI PUSH1 0x0 DUP1 REVERT JUMPDEST POP PUSH2 0x8DD DUP1 PUSH2 0x20 PUSH1 0x0 CODECOPY PUSH1 0x0 RETURN INVALID PUSH1 0x80 PUSH1 0x40 MSTORE CALLVALUE DUP1 ISZERO PUSH2 0x10 JUMPI PUSH1 0x0 DUP1 REVERT JUMPDEST POP PUSH1 0x4 CALLDATASIZE LT PUSH2 0x4C JUMPI PUSH1 0x0 CALLDATALOAD PUSH1 0xE0 SHR DUP1 PUSH4 0x1F44F6E6 EQ PUSH2 0x51 JUMPI DUP1 PUSH4 0x2DFA249B EQ PUSH2 0x6D JUMPI DUP1 PUSH4 0x7B6AB42B EQ PUSH2 0x9D JUMPI DUP1 PUSH4 0xC64C7E14 EQ PUSH2 0xB9 JUMPI JUMPDEST PUSH1 0x0 DUP1 REVERT JUMPDEST PUSH2 0x6B PUSH1 0x4 DUP1 CALLDATASIZE SUB DUP2 ADD SWAP1 PUSH2 0x66 SWAP2 SWAP1 PUSH2 0x31A JUMP JUMPDEST PUSH2 0xEA JUMP JUMPDEST STOP JUMPDEST PUSH2 0x87 PUSH1 0x4 DUP1 CALLDATASIZE SUB DUP2 ADD SWAP1 PUSH2 0x82 SWAP2 SWAP1 PUSH2 0x31A JUMP JUMPDEST PUSH2 0xED JUMP JUMPDEST PUSH1 0x40 MLOAD PUSH2 0x94 SWAP2 SWAP1 PUSH2 0x3D7 JUMP JUMPDEST PUSH1 0x40 MLOAD DUP1 SWAP2 SUB SWAP1 RETURN JUMPDEST PUSH2 0xB7 PUSH1 0x4 DUP1 CALLDATASIZE SUB DUP2 ADD SWAP1 PUSH2 0xB2 SWAP2 SWAP1 PUSH2 0x52E JUMP JUMPDEST PUSH2 0x18D JUMP JUMPDEST STOP JUMPDEST PUSH2 0xD3 PUSH1 0x4 DUP1 CALLDATASIZE SUB DUP2 ADD SWAP1 PUSH2 0xCE SWAP2 SWAP1 PUSH2 0x31A JUMP JUMPDEST PUSH2 0x214 JUMP JUMPDEST PUSH1 0x40 MLOAD PUSH2 0xE1 SWAP3 SWAP2 SWAP1 PUSH2 0x599 JUMP JUMPDEST PUSH1 0x40 MLOAD DUP1 SWAP2 SUB SWAP1 RETURN JUMPDEST POP JUMP JUMPDEST PUSH1 0x1 PUSH1 0x20 MSTORE DUP1 PUSH1 0x0 MSTORE PUSH1 0x40 PUSH1 0x0 KECCAK256 PUSH1 0x0 SWAP2 POP SWAP1 POP DUP1 SLOAD PUSH2 0x10C SWAP1 PUSH2 0x5F8 JUMP JUMPDEST DUP1 PUSH1 0x1F ADD PUSH1 0x20 DUP1 SWAP2 DIV MUL PUSH1 0x20 ADD PUSH1 0x40 MLOAD SWAP1 DUP2 ADD PUSH1 0x40 MSTORE DUP1 SWAP3 SWAP2 SWAP1 DUP2 DUP2 MSTORE PUSH1 0x20 ADD DUP3 DUP1 SLOAD PUSH2 0x138 SWAP1 PUSH2 0x5F8 JUMP JUMPDEST DUP1 ISZERO PUSH2 0x185 JUMPI DUP1 PUSH1 0x1F LT PUSH2 0x15A JUMPI PUSH2 0x100 DUP1 DUP4 SLOAD DIV MUL DUP4 MSTORE SWAP2 PUSH1 0x20 ADD SWAP2 PUSH2 0x185 JUMP JUMPDEST DUP3 ADD SWAP2 SWAP1 PUSH1 0x0 MSTORE PUSH1 0x20 PUSH1 0x0 KECCAK256 SWAP1 JUMPDEST DUP2 SLOAD DUP2 MSTORE SWAP1 PUSH1 0x1 ADD SWAP1 PUSH1 0x20 ADD DUP1 DUP4 GT PUSH2 0x168 JUMPI DUP3 SWAP1 SUB PUSH1 0x1F AND DUP3 ADD SWAP2 JUMPDEST POP POP POP POP POP DUP2 JUMP JUMPDEST PUSH1 0x0 PUSH1 0x40 MLOAD DUP1 PUSH1 0x40 ADD PUSH1 0x40 MSTORE DUP1 DUP4 DUP2 MSTORE PUSH1 0x20 ADD DUP5 DUP2 MSTORE POP SWAP1 DUP1 PUSH1 0x1 DUP2 SLOAD ADD DUP1 DUP3 SSTORE DUP1 SWAP2 POP POP PUSH1 0x1 SWAP1 SUB SWAP1 PUSH1 0x0 MSTORE PUSH1 0x20 PUSH1 0x0 KECCAK256 SWAP1 PUSH1 0x2 MUL ADD PUSH1 0x0 SWAP1 SWAP2 SWAP1 SWAP2 SWAP1 SWAP2 POP PUSH1 0x0 DUP3 ADD MLOAD DUP2 PUSH1 0x0 ADD SWAP1 DUP2 PUSH2 0x1E2 SWAP2 SWAP1 PUSH2 0x7D5 JUMP JUMPDEST POP PUSH1 0x20 DUP3 ADD MLOAD DUP2 PUSH1 0x1 ADD SSTORE POP POP DUP1 PUSH1 0x1 PUSH1 0x0 DUP5 DUP2 MSTORE PUSH1 0x20 ADD SWAP1 DUP2 MSTORE PUSH1 0x20 ADD PUSH1 0x0 KECCAK256 SWAP1 DUP2 PUSH2 0x20F SWAP2 SWAP1 PUSH2 0x7D5 JUMP JUMPDEST POP POP POP JUMP JUMPDEST PUSH1 0x0 DUP2 DUP2 SLOAD DUP2 LT PUSH2 0x224 JUMPI PUSH1 0x0 DUP1 REVERT JUMPDEST SWAP1 PUSH1 0x0 MSTORE PUSH1 0x20 PUSH1 0x0 KECCAK256 SWAP1 PUSH1 0x2 MUL ADD PUSH1 0x0 SWAP2 POP SWAP1 POP DUP1 PUSH1 0x0 ADD DUP1 SLOAD PUSH2 0x247 SWAP1 PUSH2 0x5F8 JUMP JUMPDEST DUP1 PUSH1 0x1F ADD PUSH1 0x20 DUP1 SWAP2 DIV MUL PUSH1 0x20 ADD PUSH1 0x40 MLOAD SWAP1 DUP2 ADD PUSH1 0x40 MSTORE DUP1 SWAP3 SWAP2 SWAP1 DUP2 DUP2 MSTORE PUSH1 0x20 ADD DUP3 DUP1 SLOAD PUSH2 0x273 SWAP1 PUSH2 0x5F8 JUMP JUMPDEST DUP1 ISZERO PUSH2 0x2C0 JUMPI DUP1 PUSH1 0x1F LT PUSH2 0x295 JUMPI PUSH2 0x100 DUP1 DUP4 SLOAD DIV MUL DUP4 MSTORE SWAP2 PUSH1 0x20 ADD SWAP2 PUSH2 0x2C0 JUMP JUMPDEST DUP3 ADD SWAP2 SWAP1 PUSH1 0x0 MSTORE PUSH1 0x20 PUSH1 0x0 KECCAK256 SWAP1 JUMPDEST DUP2 SLOAD DUP2 MSTORE SWAP1 PUSH1 0x1 ADD SWAP1 PUSH1 0x20 ADD DUP1 DUP4 GT PUSH2 0x2A3 JUMPI DUP3 SWAP1 SUB PUSH1 0x1F AND DUP3 ADD SWAP2 JUMPDEST POP POP POP POP POP SWAP1 DUP1 PUSH1 0x1 ADD SLOAD SWAP1 POP DUP3 JUMP JUMPDEST PUSH1 0x0 PUSH1 0x40 MLOAD SWAP1 POP SWAP1 JUMP JUMPDEST PUSH1 0x0 DUP1 REVERT JUMPDEST PUSH1 0x0 DUP1 REVERT JUMPDEST PUSH1 0x0 DUP2 SWAP1 POP SWAP2 SWAP1 POP JUMP JUMPDEST PUSH2 0x2F7 DUP2 PUSH2 0x2E4 JUMP JUMPDEST DUP2 EQ PUSH2 0x302 JUMPI PUSH1 0x0 DUP1 REVERT JUMPDEST POP JUMP JUMPDEST PUSH1 0x0 DUP2 CALLDATALOAD SWAP1 POP PUSH2 0x314 DUP2 PUSH2 0x2EE JUMP JUMPDEST SWAP3 SWAP2 POP POP JUMP JUMPDEST PUSH1 0x0 PUSH1 0x20 DUP3 DUP5 SUB SLT ISZERO PUSH2 0x330 JUMPI PUSH2 0x32F PUSH2 0x2DA JUMP JUMPDEST JUMPDEST PUSH1 0x0 PUSH2 0x33E DUP5 DUP3 DUP6 ADD PUSH2 0x305 JUMP JUMPDEST SWAP2 POP POP SWAP3 SWAP2 POP POP JUMP JUMPDEST PUSH1 0x0 DUP2 MLOAD SWAP1 POP SWAP2 SWAP1 POP JUMP JUMPDEST PUSH1 0x0 DUP3 DUP3 MSTORE PUSH1 0x20 DUP3 ADD SWAP1 POP SWAP3 SWAP2 POP POP JUMP JUMPDEST PUSH1 0x0 JUMPDEST DUP4 DUP2 LT ISZERO PUSH2 0x381 JUMPI DUP1 DUP3 ADD MLOAD DUP2 DUP5 ADD MSTORE PUSH1 0x20 DUP2 ADD SWAP1 POP PUSH2 0x366 JUMP JUMPDEST PUSH1 0x0 DUP5 DUP5 ADD MSTORE POP POP POP POP JUMP JUMPDEST PUSH1 0x0 PUSH1 0x1F NOT PUSH1 0x1F DUP4 ADD AND SWAP1 POP SWAP2 SWAP1 POP JUMP JUMPDEST PUSH1 0x0 PUSH2 0x3A9 DUP3 PUSH2 0x347 JUMP JUMPDEST PUSH2 0x3B3 DUP2 DUP6 PUSH2 0x352 JUMP JUMPDEST SWAP4 POP PUSH2 0x3C3 DUP2 DUP6 PUSH1 0x20 DUP7 ADD PUSH2 0x363 JUMP JUMPDEST PUSH2 0x3CC DUP2 PUSH2 0x38D JUMP JUMPDEST DUP5 ADD SWAP2 POP POP SWAP3 SWAP2 POP POP JUMP JUMPDEST PUSH1 0x0 PUSH1 0x20 DUP3 ADD SWAP1 POP DUP2 DUP2 SUB PUSH1 0x0 DUP4 ADD MSTORE PUSH2 0x3F1 DUP2 DUP5 PUSH2 0x39E JUMP JUMPDEST SWAP1 POP SWAP3 SWAP2 POP POP JUMP JUMPDEST PUSH1 0x0 DUP1 REVERT JUMPDEST PUSH1 0x0 DUP1 REVERT JUMPDEST PUSH32 0x4E487B7100000000000000000000000000000000000000000000000000000000 PUSH1 0x0 MSTORE PUSH1 0x41 PUSH1 0x4 MSTORE PUSH1 0x24 PUSH1 0x0 REVERT JUMPDEST PUSH2 0x43B DUP3 PUSH2 0x38D JUMP JUMPDEST DUP2 ADD DUP2 DUP2 LT PUSH8 0xFFFFFFFFFFFFFFFF DUP3 GT OR ISZERO PUSH2 0x45A JUMPI PUSH2 0x459 PUSH2 0x403 JUMP JUMPDEST JUMPDEST DUP1 PUSH1 0x40 MSTORE POP POP POP JUMP JUMPDEST PUSH1 0x0 PUSH2 0x46D PUSH2 0x2D0 JUMP JUMPDEST SWAP1 POP PUSH2 0x479 DUP3 DUP3 PUSH2 0x432 JUMP JUMPDEST SWAP2 SWAP1 POP JUMP JUMPDEST PUSH1 0x0 PUSH8 0xFFFFFFFFFFFFFFFF DUP3 GT ISZERO PUSH2 0x499 JUMPI PUSH2 0x498 PUSH2 0x403 JUMP JUMPDEST JUMPDEST PUSH2 0x4A2 DUP3 PUSH2 0x38D JUMP JUMPDEST SWAP1 POP PUSH1 0x20 DUP2 ADD SWAP1 POP SWAP2 SWAP1 POP JUMP JUMPDEST DUP3 DUP2 DUP4 CALLDATACOPY PUSH1 0x0 DUP4 DUP4 ADD MSTORE POP POP POP JUMP JUMPDEST PUSH1 0x0 PUSH2 0x4D1 PUSH2 0x4CC DUP5 PUSH2 0x47E JUMP JUMPDEST PUSH2 0x463 JUMP JUMPDEST SWAP1 POP DUP3 DUP2 MSTORE PUSH1 0x20 DUP2 ADD DUP5 DUP5 DUP5 ADD GT ISZERO PUSH2 0x4ED JUMPI PUSH2 0x4EC PUSH2 0x3FE JUMP JUMPDEST JUMPDEST PUSH2 0x4F8 DUP5 DUP3 DUP6 PUSH2 0x4AF JUMP JUMPDEST POP SWAP4 SWAP3 POP POP POP JUMP JUMPDEST PUSH1 0x0 DUP3 PUSH1 0x1F DUP4 ADD SLT PUSH2 0x515 JUMPI PUSH2 0x514 PUSH2 0x3F9 JUMP JUMPDEST JUMPDEST DUP2 CALLDATALOAD PUSH2 0x525 DUP5 DUP3 PUSH1 0x20 DUP7 ADD PUSH2 0x4BE JUMP JUMPDEST SWAP2 POP POP SWAP3 SWAP2 POP POP JUMP JUMPDEST PUSH1 0x0 DUP1 PUSH1 0x40 DUP4 DUP6 SUB SLT ISZERO PUSH2 0x545 JUMPI PUSH2 0x544 PUSH2 0x2DA JUMP JUMPDEST JUMPDEST PUSH1 0x0 PUSH2 0x553 DUP6 DUP3 DUP7 ADD PUSH2 0x305 JUMP JUMPDEST SWAP3 POP POP PUSH1 0x20 DUP4 ADD CALLDATALOAD PUSH8 0xFFFFFFFFFFFFFFFF DUP2 GT ISZERO PUSH2 0x574 JUMPI PUSH2 0x573 PUSH2 0x2DF JUMP JUMPDEST JUMPDEST PUSH2 0x580 DUP6 DUP3 DUP7 ADD PUSH2 0x500 JUMP JUMPDEST SWAP2 POP POP SWAP3 POP SWAP3 SWAP1 POP JUMP JUMPDEST PUSH2 0x593 DUP2 PUSH2 0x2E4 JUMP JUMPDEST DUP3 MSTORE POP POP JUMP JUMPDEST PUSH1 0x0 PUSH1 0x40 DUP3 ADD SWAP1 POP DUP2 DUP2 SUB PUSH1 0x0 DUP4 ADD MSTORE PUSH2 0x5B3 DUP2 DUP6 PUSH2 0x39E JUMP JUMPDEST SWAP1 POP PUSH2 0x5C2 PUSH1 0x20 DUP4 ADD DUP5 PUSH2 0x58A JUMP JUMPDEST SWAP4 SWAP3 POP POP POP JUMP JUMPDEST PUSH32 0x4E487B7100000000000000000000000000000000000000000000000000000000 PUSH1 0x0 MSTORE PUSH1 0x22 PUSH1 0x4 MSTORE PUSH1 0x24 PUSH1 0x0 REVERT JUMPDEST PUSH1 0x0 PUSH1 0x2 DUP3 DIV SWAP1 POP PUSH1 0x1 DUP3 AND DUP1 PUSH2 0x610 JUMPI PUSH1 0x7F DUP3 AND SWAP2 POP JUMPDEST PUSH1 0x20 DUP3 LT DUP2 SUB PUSH2 0x623 JUMPI PUSH2 0x622 PUSH2 0x5C9 JUMP JUMPDEST JUMPDEST POP SWAP2 SWAP1 POP JUMP JUMPDEST PUSH1 0x0 DUP2 SWAP1 POP DUP2 PUSH1 0x0 MSTORE PUSH1 0x20 PUSH1 0x0 KECCAK256 SWAP1 POP SWAP2 SWAP1 POP JUMP JUMPDEST PUSH1 0x0 PUSH1 0x20 PUSH1 0x1F DUP4 ADD DIV SWAP1 POP SWAP2 SWAP1 POP JUMP JUMPDEST PUSH1 0x0 DUP3 DUP3 SHL SWAP1 POP SWAP3 SWAP2 POP POP JUMP JUMPDEST PUSH1 0x0 PUSH1 0x8 DUP4 MUL PUSH2 0x68B PUSH32 0xFFFFFFFFFFFFFFFFFFFFFFFFFFFFFFFFFFFFFFFFFFFFFFFFFFFFFFFFFFFFFFFF DUP3 PUSH2 0x64E JUMP JUMPDEST PUSH2 0x695 DUP7 DUP4 PUSH2 0x64E JUMP JUMPDEST SWAP6 POP DUP1 NOT DUP5 AND SWAP4 POP DUP1 DUP7 AND DUP5 OR SWAP3 POP POP POP SWAP4 SWAP3 POP POP POP JUMP JUMPDEST PUSH1 0x0 DUP2 SWAP1 POP SWAP2 SWAP1 POP JUMP JUMPDEST PUSH1 0x0 PUSH2 0x6D2 PUSH2 0x6CD PUSH2 0x6C8 DUP5 PUSH2 0x2E4 JUMP JUMPDEST PUSH2 0x6AD JUMP JUMPDEST PUSH2 0x2E4 JUMP JUMPDEST SWAP1 POP SWAP2 SWAP1 POP JUMP JUMPDEST PUSH1 0x0 DUP2 SWAP1 POP SWAP2 SWAP1 POP JUMP JUMPDEST PUSH2 0x6EC DUP4 PUSH2 0x6B7 JUMP JUMPDEST PUSH2 0x700 PUSH2 0x6F8 DUP3 PUSH2 0x6D9 JUMP JUMPDEST DUP5 DUP5 SLOAD PUSH2 0x65B JUMP JUMPDEST DUP3 SSTORE POP POP POP POP JUMP JUMPDEST PUSH1 0x0 SWAP1 JUMP JUMPDEST PUSH2 0x715 PUSH2 0x708 JUMP JUMPDEST PUSH2 0x720 DUP2 DUP5 DUP5 PUSH2 0x6E3 JUMP JUMPDEST POP POP POP JUMP JUMPDEST JUMPDEST DUP2 DUP2 LT ISZERO PUSH2 0x744 JUMPI PUSH2 0x739 PUSH1 0x0 DUP3 PUSH2 0x70D JUMP JUMPDEST PUSH1 0x1 DUP2 ADD SWAP1 POP PUSH2 0x726 JUMP JUMPDEST POP POP JUMP JUMPDEST PUSH1 0x1F DUP3 GT ISZERO PUSH2 0x789 JUMPI PUSH2 0x75A DUP2 PUSH2 0x629 JUMP JUMPDEST PUSH2 0x763 DUP5 PUSH2 0x63E JUMP JUMPDEST DUP2 ADD PUSH1 0x20 DUP6 LT ISZERO PUSH2 0x772 JUMPI DUP2 SWAP1 POP JUMPDEST PUSH2 0x786 PUSH2 0x77E DUP6 PUSH2 0x63E JUMP JUMPDEST DUP4 ADD DUP3 PUSH2 0x725 JUMP JUMPDEST POP POP JUMPDEST POP POP POP JUMP JUMPDEST PUSH1 0x0 DUP3 DUP3 SHR SWAP1 POP SWAP3 SWAP2 POP POP JUMP JUMPDEST PUSH1 0x0 PUSH2 0x7AC PUSH1 0x0 NOT DUP5 PUSH1 0x8 MUL PUSH2 0x78E JUMP JUMPDEST NOT DUP1 DUP4 AND SWAP2 POP POP SWAP3 SWAP2 POP POP JUMP JUMPDEST PUSH1 0x0 PUSH2 0x7C5 DUP4 DUP4 PUSH2 0x79B JUMP JUMPDEST SWAP2 POP DUP3 PUSH1 0x2 MUL DUP3 OR SWAP1 POP SWAP3 SWAP2 POP POP JUMP JUMPDEST PUSH2 0x7DE DUP3 PUSH2 0x347 JUMP JUMPDEST PUSH8 0xFFFFFFFFFFFFFFFF DUP2 GT ISZERO PUSH2 0x7F7 JUMPI PUSH2 0x7F6 PUSH2 0x403 JUMP JUMPDEST JUMPDEST PUSH2 0x801 DUP3 SLOAD PUSH2 0x5F8 JUMP JUMPDEST PUSH2 0x80C DUP3 DUP3 DUP6 PUSH2 0x748 JUMP JUMPDEST PUSH1 0x0 PUSH1 0x20 SWAP1 POP PUSH1 0x1F DUP4 GT PUSH1 0x1 DUP2 EQ PUSH2 0x83F JUMPI PUSH1 0x0 DUP5 ISZERO PUSH2 0x82D JUMPI DUP3 DUP8 ADD MLOAD SWAP1 POP JUMPDEST PUSH2 0x837 DUP6 DUP3 PUSH2 0x7B9 JUMP JUMPDEST DUP7 SSTORE POP PUSH2 0x89F JUMP JUMPDEST PUSH1 0x1F NOT DUP5 AND PUSH2 0x84D DUP7 PUSH2 0x629 JUMP JUMPDEST PUSH1 0x0 JUMPDEST DUP3 DUP2 LT ISZERO PUSH2 0x875 JUMPI DUP5 DUP10 ADD MLOAD DUP3 SSTORE PUSH1 0x1 DUP3 ADD SWAP2 POP PUSH1 0x20 DUP6 ADD SWAP5 POP PUSH1 0x20 DUP2 ADD SWAP1 POP PUSH2 0x850 JUMP JUMPDEST DUP7 DUP4 LT ISZERO PUSH2 0x892 JUMPI DUP5 DUP10 ADD MLOAD PUSH2 0x88E PUSH1 0x1F DUP10 AND DUP3 PUSH2 0x79B JUMP JUMPDEST DUP4 SSTORE POP JUMPDEST PUSH1 0x1 PUSH1 0x2 DUP9 MUL ADD DUP9 SSTORE POP POP POP JUMPDEST POP POP POP POP POP POP JUMP INVALID LOG2 PUSH5 0x6970667358 0x22 SLT KECCAK256 PUSH19 0x6991499F1C02B3A320ED8DC16F4E3A14109562 CALLDATACOPY PUSH31 0xD9713B9E4F878903B3B564736F6C6343000812003300000000000000000000 "
		},
		"gasEstimates": {
			"creation": {
				"codeDepositCost": "453800",
				"executionCost": "486",
				"totalCost": "454286"
			},
			"external": {
				"marks(uint256)": "384",
				"rollnotoname(uint256)": "infinite",
				"studdetails(uint256,string)": "infinite",
				"studnetArray(uint256)": "infinite"
			}
		},
		"methodIdentifiers": {
			"marks(uint256)": "1f44f6e6",
			"rollnotoname(uint256)": "2dfa249b",
			"studdetails(uint256,string)": "7b6ab42b",
			"studnetArray(uint256)": "c64c7e14"
		}
	},
	"abi": [
		{
			"inputs": [
				{
					"internalType": "uint256",
					"name": "mark",
					"type": "uint256"
				}
			],
			"name": "marks",
			"outputs": [],
			"stateMutability": "nonpayable",
			"type": "function"
		},
		{
			"inputs": [
				{
					"internalType": "uint256",
					"name": "",
					"type": "uint256"
				}
			],
			"name": "rollnotoname",
			"outputs": [
				{
					"internalType": "string",
					"name": "",
					"type": "string"
				}
			],
			"stateMutability": "view",
			"type": "function"
		},
		{
			"inputs": [
				{
					"internalType": "uint256",
					"name": "_rollno",
					"type": "uint256"
				},
				{
					"internalType": "string",
					"name": "_name",
					"type": "string"
				}
			],
			"name": "studdetails",
			"outputs": [],
			"stateMutability": "nonpayable",
			"type": "function"
		},
		{
			"inputs": [
				{
					"internalType": "uint256",
					"name": "",
					"type": "uint256"
				}
			],
			"name": "studnetArray",
			"outputs": [
				{
					"internalType": "string",
					"name": "name",
					"type": "string"
				},
				{
					"internalType": "uint256",
					"name": "rollno",
					"type": "uint256"
				}
			],
			"stateMutability": "view",
			"type": "function"
		}
	]
}